{
  "contractName": "Voting",
  "abi": [
    {
      "constant": true,
      "inputs": [
        {
          "name": "",
          "type": "bytes32"
        }
      ],
      "name": "votesReceived",
      "outputs": [
        {
          "name": "",
          "type": "uint8"
        }
      ],
      "payable": false,
      "stateMutability": "view",
      "type": "function"
    },
    {
      "constant": true,
      "inputs": [
        {
          "name": "",
          "type": "uint256"
        }
      ],
      "name": "candidateList",
      "outputs": [
        {
          "name": "",
          "type": "bytes32"
        }
      ],
      "payable": false,
      "stateMutability": "view",
      "type": "function"
    },
    {
      "inputs": [],
      "payable": false,
      "stateMutability": "nonpayable",
      "type": "constructor"
    },
    {
      "anonymous": false,
      "inputs": [
        {
          "indexed": false,
          "name": "name",
          "type": "bytes32"
        }
      ],
      "name": "NewCandidate",
      "type": "event"
    },
    {
      "anonymous": false,
      "inputs": [
        {
          "indexed": false,
          "name": "name",
          "type": "bytes32"
        }
      ],
      "name": "VoteCast",
      "type": "event"
    },
    {
      "constant": false,
      "inputs": [
        {
          "name": "cand",
          "type": "bytes32"
        }
      ],
      "name": "addCandidate",
      "outputs": [],
      "payable": false,
      "stateMutability": "nonpayable",
      "type": "function"
    },
    {
      "constant": true,
      "inputs": [],
      "name": "getCandidateListLen",
      "outputs": [
        {
          "name": "",
          "type": "uint256"
        }
      ],
      "payable": false,
      "stateMutability": "view",
      "type": "function"
    },
    {
      "constant": true,
      "inputs": [
        {
          "name": "candidate",
          "type": "bytes32"
        }
      ],
      "name": "totalVotesFor",
      "outputs": [
        {
          "name": "",
          "type": "uint8"
        }
      ],
      "payable": false,
      "stateMutability": "view",
      "type": "function"
    },
    {
      "constant": false,
      "inputs": [
        {
          "name": "candidate",
          "type": "bytes32"
        }
      ],
      "name": "voteForCandidate",
      "outputs": [],
      "payable": false,
      "stateMutability": "nonpayable",
      "type": "function"
    },
    {
      "constant": true,
      "inputs": [
        {
          "name": "candidate",
          "type": "bytes32"
        }
      ],
      "name": "validCandidate",
      "outputs": [
        {
          "name": "",
          "type": "bool"
        }
      ],
      "payable": false,
      "stateMutability": "view",
      "type": "function"
    }
  ],
  "bytecode": "0x608060405234801561001057600080fd5b5033600260006101000a81548173ffffffffffffffffffffffffffffffffffffffff021916908373ffffffffffffffffffffffffffffffffffffffff16021790555060018060018154018082558091505090600182039060005260206000200160007f4e69636b205765737400000000000000000000000000000000000000000000009091909150906000191690555060018060018154018082558091505090600182039060005260206000200160007f4e69636b2056696e63656e7400000000000000000000000000000000000000009091909150906000191690555060018060018154018082558091505090600182039060005260206000200160007f54796c657220526f73656e0000000000000000000000000000000000000000009091909150906000191690555060018060018154018082558091505090600182039060005260206000200160007f5269636820427564656b000000000000000000000000000000000000000000009091909150906000191690555060018060018154018082558091505090600182039060005260206000200160007f4d696b652053616c696d000000000000000000000000000000000000000000009091909150906000191690555060018060018154018082558091505090600182039060005260206000200160007f4d6172696f2042616a72696300000000000000000000000000000000000000009091909150906000191690555060018060018154018082558091505090600182039060005260206000200160007f45647761726420597500000000000000000000000000000000000000000000009091909150906000191690555060018060018154018082558091505090600182039060005260206000200160007f4672616e636f6973204a756c69656e20416c636172617a0000000000000000009091909150906000191690555060018060018154018082558091505090600182039060005260206000200160007f4a6f7368756120487564736f6e000000000000000000000000000000000000009091909150906000191690555060018060018154018082558091505090600182039060005260206000200160007f4d617263205374657068656e20536f746f0000000000000000000000000000009091909150906000191690555060018060018154018082558091505090600182039060005260206000200160007f5061747269636b204c6f756768726579000000000000000000000000000000009091909150906000191690555060018060018154018082558091505090600182039060005260206000200160007f596f756e67204a6f6f6e67204b696d0000000000000000000000000000000000909190915090600019169055506104c9806104096000396000f300608060405260043610610083576000357c0100000000000000000000000000000000000000000000000000000000900463ffffffff1680630a0cf69714610088578063230d6ed8146100b35780632f265cf7146100e4578063392e66781461012f5780637021939f14610178578063b13c744b146101c3578063cc9ab2671461020c575b600080fd5b34801561009457600080fd5b5061009d61023d565b6040518082815260200191505060405180910390f35b3480156100bf57600080fd5b506100e2600480360381019080803560001916906020019092919050505061024a565b005b3480156100f057600080fd5b50610113600480360381019080803560001916906020019092919050505061031a565b604051808260ff1660ff16815260200191505060405180910390f35b34801561013b57600080fd5b5061015e600480360381019080803560001916906020019092919050505061035f565b604051808215151515815260200191505060405180910390f35b34801561018457600080fd5b506101a760048036038101908080356000191690602001909291905050506103be565b604051808260ff1660ff16815260200191505060405180910390f35b3480156101cf57600080fd5b506101ee600480360381019080803590602001909291905050506103de565b60405180826000191660001916815260200191505060405180910390f35b34801561021857600080fd5b5061023b6004803603810190808035600019169060200190929190505050610401565b005b6000600180549050905090565b600260009054906101000a900473ffffffffffffffffffffffffffffffffffffffff1673ffffffffffffffffffffffffffffffffffffffff163373ffffffffffffffffffffffffffffffffffffffff161415156102a657600080fd5b60018190806001815401808255809150509060018203906000526020600020016000909192909190915090600019169055507f244a1ecb837326ac5c7aec318cd7b3ee5746337d7e7a5648cc9a05be92bc0bce8160405180826000191660001916815260200191505060405180910390a150565b60006103258261035f565b151561033057600080fd5b600080836000191660001916815260200190815260200160002060009054906101000a900460ff169050919050565b600080600090505b6001805490508110156103b357826000191660018281548110151561038857fe5b90600052602060002001546000191614156103a657600191506103b8565b8080600101915050610367565b600091505b50919050565b60006020528060005260406000206000915054906101000a900460ff1681565b6001818154811015156103ed57fe5b906000526020600020016000915090505481565b61040a8161035f565b151561041557600080fd5b6001600080836000191660001916815260200190815260200160002060008282829054906101000a900460ff160192506101000a81548160ff021916908360ff1602179055507f83edaadd54883960654e65a82f828e3e27b8c67edaca2263611d68d3c2fb3d8d8160405180826000191660001916815260200191505060405180910390a1505600a165627a7a7230582088acc6499cc782c8a6ed0635cc7378f8bb97cf104084e661782d1979132f6a720029",
  "source": "pragma solidity ^0.4.18;\n\ncontract Voting {\n  event NewCandidate(\n      bytes32 name\n  );\n\n  event VoteCast(\n    bytes32 name\n  );\n\n  mapping (bytes32 => uint8) public votesReceived;\n  bytes32[] public candidateList;\n  address owner;\n\n  function Voting() {\n    owner = msg.sender;\n\n    candidateList.push('Nick West');\n    candidateList.push('Nick Vincent');\n    candidateList.push('Tyler Rosen');\n    candidateList.push('Rich Budek');\n    candidateList.push('Mike Salim');\n    candidateList.push('Mario Bajric');\n    candidateList.push('Edward Yu');\n    candidateList.push('Francois Julien Alcaraz');\n    candidateList.push('Joshua Hudson');\n    candidateList.push('Marc Stephen Soto');\n    candidateList.push('Patrick Loughrey');\n    candidateList.push('Young Joong Kim');\n  }\n\n  function addCandidate(bytes32 cand){\n    require(msg.sender == owner);\n    candidateList.push(cand);\n    emit NewCandidate(cand);\n  }\n\n  function getCandidateListLen() public view returns (uint256) {\n      return candidateList.length;\n  }\n\n  function totalVotesFor(bytes32 candidate) view public returns (uint8) {\n    require(validCandidate(candidate));\n    return votesReceived[candidate];\n  }\n\n  function voteForCandidate(bytes32 candidate) public {\n    require(validCandidate(candidate));\n    votesReceived[candidate] += 1;\n\n    emit VoteCast(candidate);\n  }\n\n  function validCandidate(bytes32 candidate) view public returns (bool) {\n    for(uint i = 0; i < candidateList.length; i++) {\n      if (candidateList[i] == candidate) {\n        return true;\n      }\n    }\n    return false;\n   }\n}\n",
  "sourcePath": "/Users/yj/Developer/StudyTheBlockChain/code/voting-app-no-solution/07/contracts/Voting.sol",
  "compiler": {
    "name": "solc",
    "version": "0.4.23+commit.124ca40d.Emscripten.clang"
  },
  "schemaVersion": "2.0.0",
  "updatedAt": "2018-05-16T00:42:12.558Z"
}