{
  "contractName": "AddressBook",
  "abi": [
    {
      "constant": true,
      "inputs": [],
      "name": "work_address",
      "outputs": [
        {
          "name": "",
          "type": "string"
        }
      ],
      "payable": false,
      "stateMutability": "view",
      "type": "function"
    },
    {
      "constant": true,
      "inputs": [],
      "name": "date_we_met",
      "outputs": [
        {
          "name": "",
          "type": "string"
        }
      ],
      "payable": false,
      "stateMutability": "view",
      "type": "function"
    },
    {
      "constant": true,
      "inputs": [],
      "name": "email_address",
      "outputs": [
        {
          "name": "",
          "type": "string"
        }
      ],
      "payable": false,
      "stateMutability": "view",
      "type": "function"
    },
    {
      "constant": true,
      "inputs": [],
      "name": "notes",
      "outputs": [
        {
          "name": "",
          "type": "string"
        }
      ],
      "payable": false,
      "stateMutability": "view",
      "type": "function"
    },
    {
      "constant": true,
      "inputs": [],
      "name": "where_we_met",
      "outputs": [
        {
          "name": "",
          "type": "string"
        }
      ],
      "payable": false,
      "stateMutability": "view",
      "type": "function"
    },
    {
      "constant": true,
      "inputs": [],
      "name": "phone_number",
      "outputs": [
        {
          "name": "",
          "type": "string"
        }
      ],
      "payable": false,
      "stateMutability": "view",
      "type": "function"
    },
    {
      "constant": true,
      "inputs": [],
      "name": "first_name",
      "outputs": [
        {
          "name": "",
          "type": "string"
        }
      ],
      "payable": false,
      "stateMutability": "view",
      "type": "function"
    },
    {
      "constant": true,
      "inputs": [],
      "name": "last_name",
      "outputs": [
        {
          "name": "",
          "type": "string"
        }
      ],
      "payable": false,
      "stateMutability": "view",
      "type": "function"
    },
    {
      "constant": true,
      "inputs": [],
      "name": "getFullName",
      "outputs": [
        {
          "name": "a",
          "type": "string"
        },
        {
          "name": "b",
          "type": "string"
        }
      ],
      "payable": false,
      "stateMutability": "view",
      "type": "function"
    },
    {
      "constant": true,
      "inputs": [],
      "name": "getOtherInfo",
      "outputs": [
        {
          "name": "a",
          "type": "string"
        },
        {
          "name": "b",
          "type": "string"
        },
        {
          "name": "c",
          "type": "string"
        },
        {
          "name": "d",
          "type": "string"
        },
        {
          "name": "e",
          "type": "string"
        },
        {
          "name": "f",
          "type": "string"
        }
      ],
      "payable": false,
      "stateMutability": "view",
      "type": "function"
    },
    {
      "constant": false,
      "inputs": [
        {
          "name": "_first_name",
          "type": "string"
        },
        {
          "name": "_last_name",
          "type": "string"
        },
        {
          "name": "_phone_number",
          "type": "string"
        },
        {
          "name": "_email_address",
          "type": "string"
        }
      ],
      "name": "set_base_state",
      "outputs": [],
      "payable": false,
      "stateMutability": "nonpayable",
      "type": "function"
    },
    {
      "constant": false,
      "inputs": [
        {
          "name": "_work_address",
          "type": "string"
        },
        {
          "name": "_where_we_met",
          "type": "string"
        },
        {
          "name": "_notes",
          "type": "string"
        },
        {
          "name": "_date_we_met",
          "type": "string"
        }
      ],
      "name": "set_other_state",
      "outputs": [],
      "payable": false,
      "stateMutability": "nonpayable",
      "type": "function"
    }
  ],
  "bytecode": "0x60606040526040805190810160405280600481526020017f596f676900000000000000000000000000000000000000000000000000000000815250600090805190602001906200005192919062000286565b506040805190810160405280600481526020017f4265617200000000000000000000000000000000000000000000000000000000815250600190805190602001906200009f92919062000286565b506040805190810160405280600c81526020017f3132332d3435362d37383930000000000000000000000000000000000000000081525060029080519060200190620000ed92919062000286565b506040805190810160405280600f81526020017f3132332070696e65207374726565740000000000000000000000000000000000815250600390805190602001906200013b92919062000286565b506040805190810160405280600881526020017f7468652063617665000000000000000000000000000000000000000000000000815250600490805190602001906200018992919062000286565b506040805190810160405280600e81526020017f626c616820626c616820626c616800000000000000000000000000000000000081525060059080519060200190620001d792919062000286565b506040805190810160405280600681526020017f312d322d31380000000000000000000000000000000000000000000000000000815250600690805190602001906200022592919062000286565b506040805190810160405280600e81526020017f796f676940676d61696c2e636f6d000000000000000000000000000000000000815250600790805190602001906200027392919062000286565b5034156200028057600080fd5b62000335565b828054600181600116156101000203166002900490600052602060002090601f016020900481019282601f10620002c957805160ff1916838001178555620002fa565b82800160010185558215620002fa579182015b82811115620002f9578251825591602001919060010190620002dc565b5b5090506200030991906200030d565b5090565b6200033291905b808211156200032e57600081600090555060010162000314565b5090565b90565b61177a80620003456000396000f3006060604052600436106100ba576000357c0100000000000000000000000000000000000000000000000000000000900463ffffffff16806304a1bdc3146100bf5780630b2cdb861461014d5780630cd2c20f146101db5780631866dc971461026957806328f24186146102f75780638c160186146105a157806391e494901461069b578063b630c42e14610729578063bd2735191461084f578063cc7318f1146108dd578063de23f1171461096b578063eecc285a14610a91575b600080fd5b34156100ca57600080fd5b6100d2610b1f565b6040518080602001828103825283818151815260200191508051906020019080838360005b838110156101125780820151818401526020810190506100f7565b50505050905090810190601f16801561013f5780820380516001836020036101000a031916815260200191505b509250505060405180910390f35b341561015857600080fd5b610160610bbd565b6040518080602001828103825283818151815260200191508051906020019080838360005b838110156101a0578082015181840152602081019050610185565b50505050905090810190601f1680156101cd5780820380516001836020036101000a031916815260200191505b509250505060405180910390f35b34156101e657600080fd5b6101ee610c5b565b6040518080602001828103825283818151815260200191508051906020019080838360005b8381101561022e578082015181840152602081019050610213565b50505050905090810190601f16801561025b5780820380516001836020036101000a031916815260200191505b509250505060405180910390f35b341561027457600080fd5b61027c610cf9565b6040518080602001828103825283818151815260200191508051906020019080838360005b838110156102bc5780820151818401526020810190506102a1565b50505050905090810190601f1680156102e95780820380516001836020036101000a031916815260200191505b509250505060405180910390f35b341561030257600080fd5b61030a610d97565b6040518080602001806020018060200180602001806020018060200187810387528d818151815260200191508051906020019080838360005b8381101561035e578082015181840152602081019050610343565b50505050905090810190601f16801561038b5780820380516001836020036101000a031916815260200191505b5087810386528c818151815260200191508051906020019080838360005b838110156103c45780820151818401526020810190506103a9565b50505050905090810190601f1680156103f15780820380516001836020036101000a031916815260200191505b5087810385528b818151815260200191508051906020019080838360005b8381101561042a57808201518184015260208101905061040f565b50505050905090810190601f1680156104575780820380516001836020036101000a031916815260200191505b5087810384528a818151815260200191508051906020019080838360005b83811015610490578082015181840152602081019050610475565b50505050905090810190601f1680156104bd5780820380516001836020036101000a031916815260200191505b50878103835289818151815260200191508051906020019080838360005b838110156104f65780820151818401526020810190506104db565b50505050905090810190601f1680156105235780820380516001836020036101000a031916815260200191505b50878103825288818151815260200191508051906020019080838360005b8381101561055c578082015181840152602081019050610541565b50505050905090810190601f1680156105895780820380516001836020036101000a031916815260200191505b509c5050505050505050505050505060405180910390f35b34156105ac57600080fd5b6105b461118f565b604051808060200180602001838103835285818151815260200191508051906020019080838360005b838110156105f85780820151818401526020810190506105dd565b50505050905090810190601f1680156106255780820380516001836020036101000a031916815260200191505b50838103825284818151815260200191508051906020019080838360005b8381101561065e578082015181840152602081019050610643565b50505050905090810190601f16801561068b5780820380516001836020036101000a031916815260200191505b5094505050505060405180910390f35b34156106a657600080fd5b6106ae6112e3565b6040518080602001828103825283818151815260200191508051906020019080838360005b838110156106ee5780820151818401526020810190506106d3565b50505050905090810190601f16801561071b5780820380516001836020036101000a031916815260200191505b509250505060405180910390f35b341561073457600080fd5b61084d600480803590602001908201803590602001908080601f0160208091040260200160405190810160405280939291908181526020018383808284378201915050505050509190803590602001908201803590602001908080601f0160208091040260200160405190810160405280939291908181526020018383808284378201915050505050509190803590602001908201803590602001908080601f0160208091040260200160405190810160405280939291908181526020018383808284378201915050505050509190803590602001908201803590602001908080601f01602080910402602001604051908101604052809392919081815260200183838082843782019150505050505091905050611381565b005b341561085a57600080fd5b61086261141e565b6040518080602001828103825283818151815260200191508051906020019080838360005b838110156108a2578082015181840152602081019050610887565b50505050905090810190601f1680156108cf5780820380516001836020036101000a031916815260200191505b509250505060405180910390f35b34156108e857600080fd5b6108f06114bc565b6040518080602001828103825283818151815260200191508051906020019080838360005b83811015610930578082015181840152602081019050610915565b50505050905090810190601f16801561095d5780820380516001836020036101000a031916815260200191505b509250505060405180910390f35b341561097657600080fd5b610a8f600480803590602001908201803590602001908080601f0160208091040260200160405190810160405280939291908181526020018383808284378201915050505050509190803590602001908201803590602001908080601f0160208091040260200160405190810160405280939291908181526020018383808284378201915050505050509190803590602001908201803590602001908080601f0160208091040260200160405190810160405280939291908181526020018383808284378201915050505050509190803590602001908201803590602001908080601f0160208091040260200160405190810160405280939291908181526020018383808284378201915050505050509190505061155a565b005b3415610a9c57600080fd5b610aa46115f7565b6040518080602001828103825283818151815260200191508051906020019080838360005b83811015610ae4578082015181840152602081019050610ac9565b50505050905090810190601f168015610b115780820380516001836020036101000a031916815260200191505b509250505060405180910390f35b60038054600181600116156101000203166002900480601f016020809104026020016040519081016040528092919081815260200182805460018160011615610100020316600290048015610bb55780601f10610b8a57610100808354040283529160200191610bb5565b820191906000526020600020905b815481529060010190602001808311610b9857829003601f168201915b505050505081565b60068054600181600116156101000203166002900480601f016020809104026020016040519081016040528092919081815260200182805460018160011615610100020316600290048015610c535780601f10610c2857610100808354040283529160200191610c53565b820191906000526020600020905b815481529060010190602001808311610c3657829003601f168201915b505050505081565b60078054600181600116156101000203166002900480601f016020809104026020016040519081016040528092919081815260200182805460018160011615610100020316600290048015610cf15780601f10610cc657610100808354040283529160200191610cf1565b820191906000526020600020905b815481529060010190602001808311610cd457829003601f168201915b505050505081565b60058054600181600116156101000203166002900480601f016020809104026020016040519081016040528092919081815260200182805460018160011615610100020316600290048015610d8f5780601f10610d6457610100808354040283529160200191610d8f565b820191906000526020600020905b815481529060010190602001808311610d7257829003601f168201915b505050505081565b610d9f611695565b610da7611695565b610daf611695565b610db7611695565b610dbf611695565b610dc7611695565b600260036004600560066007858054600181600116156101000203166002900480601f016020809104026020016040519081016040528092919081815260200182805460018160011615610100020316600290048015610e685780601f10610e3d57610100808354040283529160200191610e68565b820191906000526020600020905b815481529060010190602001808311610e4b57829003601f168201915b50505050509550848054600181600116156101000203166002900480601f016020809104026020016040519081016040528092919081815260200182805460018160011615610100020316600290048015610f045780601f10610ed957610100808354040283529160200191610f04565b820191906000526020600020905b815481529060010190602001808311610ee757829003601f168201915b50505050509450838054600181600116156101000203166002900480601f016020809104026020016040519081016040528092919081815260200182805460018160011615610100020316600290048015610fa05780601f10610f7557610100808354040283529160200191610fa0565b820191906000526020600020905b815481529060010190602001808311610f8357829003601f168201915b50505050509350828054600181600116156101000203166002900480601f01602080910402602001604051908101604052809291908181526020018280546001816001161561010002031660029004801561103c5780601f106110115761010080835404028352916020019161103c565b820191906000526020600020905b81548152906001019060200180831161101f57829003601f168201915b50505050509250818054600181600116156101000203166002900480601f0160208091040260200160405190810160405280929190818152602001828054600181600116156101000203166002900480156110d85780601f106110ad576101008083540402835291602001916110d8565b820191906000526020600020905b8154815290600101906020018083116110bb57829003601f168201915b50505050509150808054600181600116156101000203166002900480601f0160208091040260200160405190810160405280929190818152602001828054600181600116156101000203166002900480156111745780601f1061114957610100808354040283529160200191611174565b820191906000526020600020905b81548152906001019060200180831161115757829003601f168201915b50505050509050955095509550955095509550909192939495565b611197611695565b61119f611695565b60006001818054600181600116156101000203166002900480601f0160208091040260200160405190810160405280929190818152602001828054600181600116156101000203166002900480156112385780601f1061120d57610100808354040283529160200191611238565b820191906000526020600020905b81548152906001019060200180831161121b57829003601f168201915b50505050509150808054600181600116156101000203166002900480601f0160208091040260200160405190810160405280929190818152602001828054600181600116156101000203166002900480156112d45780601f106112a9576101008083540402835291602001916112d4565b820191906000526020600020905b8154815290600101906020018083116112b757829003601f168201915b50505050509050915091509091565b60048054600181600116156101000203166002900480601f0160208091040260200160405190810160405280929190818152602001828054600181600116156101000203166002900480156113795780601f1061134e57610100808354040283529160200191611379565b820191906000526020600020905b81548152906001019060200180831161135c57829003601f168201915b505050505081565b603284511115801561139557506032835111155b80156113a357506032825111155b80156113b157506032815111155b15156113bc57600080fd5b83600090805190602001906113d29291906116a9565b5082600190805190602001906113e99291906116a9565b5081600290805190602001906114009291906116a9565b5080600790805190602001906114179291906116a9565b5050505050565b60028054600181600116156101000203166002900480601f0160208091040260200160405190810160405280929190818152602001828054600181600116156101000203166002900480156114b45780601f10611489576101008083540402835291602001916114b4565b820191906000526020600020905b81548152906001019060200180831161149757829003601f168201915b505050505081565b60008054600181600116156101000203166002900480601f0160208091040260200160405190810160405280929190818152602001828054600181600116156101000203166002900480156115525780601f1061152757610100808354040283529160200191611552565b820191906000526020600020905b81548152906001019060200180831161153557829003601f168201915b505050505081565b603284511115801561156e57506032835111155b801561157c57506032825111155b801561158a57506032815111155b151561159557600080fd5b83600390805190602001906115ab9291906116a9565b5082600490805190602001906115c29291906116a9565b5081600590805190602001906115d99291906116a9565b5080600690805190602001906115f09291906116a9565b5050505050565b60018054600181600116156101000203166002900480601f01602080910402602001604051908101604052809291908181526020018280546001816001161561010002031660029004801561168d5780601f106116625761010080835404028352916020019161168d565b820191906000526020600020905b81548152906001019060200180831161167057829003601f168201915b505050505081565b602060405190810160405280600081525090565b828054600181600116156101000203166002900490600052602060002090601f016020900481019282601f106116ea57805160ff1916838001178555611718565b82800160010185558215611718579182015b828111156117175782518255916020019190600101906116fc565b5b5090506117259190611729565b5090565b61174b91905b8082111561174757600081600090555060010161172f565b5090565b905600a165627a7a723058204a06974e09189c1a6d704d199fff268e73212e783bbefb24bf8549d8ee86008d0029",
  "source": "pragma solidity ^0.4.18;\n\ncontract AddressBook {\n\tstring public first_name = 'Yogi';\n\tstring public last_name = 'Bear';\n\tstring public phone_number = '123-456-7890';\n\tstring public work_address = '123 pine street';\n\tstring public where_we_met = 'the cave';\n\tstring public notes = 'blah blah blah';\n\tstring public date_we_met = '1-2-18';\n\tstring public email_address = 'yogi@gmail.com';\n\n\tfunction getFullName() view public returns(string a, string b){\n\t\treturn (first_name, last_name);\n\t}\n\n\tfunction getOtherInfo() view public returns(string a, string b, string c, string d, string e, string f){\n\t\treturn (phone_number, work_address, where_we_met, notes, date_we_met, email_address);\n\t}\n\n\tfunction set_base_state(string _first_name, string _last_name, string _phone_number, string _email_address) public {\n\t\trequire(bytes(_first_name).length <= 50 && bytes(_last_name).length <= 50 && bytes(_phone_number).length <= 50 && bytes(_email_address).length <= 50);\n\t\tfirst_name = _first_name;\n\t\tlast_name = _last_name;\n\t\tphone_number = _phone_number;\n\t\temail_address = _email_address;\n\t}\n\n\tfunction set_other_state(string _work_address, string _where_we_met, string _notes, string _date_we_met) public {\n\t\trequire(bytes(_work_address).length <= 50 && bytes(_where_we_met).length <= 50 && bytes(_notes).length <= 50 && bytes(_date_we_met).length <= 50);\n\t\twork_address = _work_address;\n\t\twhere_we_met = _where_we_met;\n\t\tnotes = _notes;\n\t\tdate_we_met = _date_we_met;\n\t}\n}",
  "sourcePath": "/Users/yj/Developer/StudyTheBlockChain/Code/address-book/part5/contracts/AddressBook.sol",
  "compiler": {
    "name": "solc",
    "version": "0.4.21+commit.dfe3193c.Emscripten.clang"
  },
  "schemaVersion": "2.0.0",
  "updatedAt": "2018-05-07T00:43:45.315Z"
}