{
  "contractName": "Voting",
  "abi": [
    {
      "constant": true,
      "inputs": [
        {
          "name": "",
          "type": "bytes32"
        }
      ],
      "name": "votesReceived",
      "outputs": [
        {
          "name": "",
          "type": "uint8"
        }
      ],
      "payable": false,
      "stateMutability": "view",
      "type": "function"
    },
    {
      "constant": true,
      "inputs": [
        {
          "name": "",
          "type": "uint256"
        }
      ],
      "name": "candidateList",
      "outputs": [
        {
          "name": "",
          "type": "bytes32"
        }
      ],
      "payable": false,
      "stateMutability": "view",
      "type": "function"
    },
    {
      "inputs": [],
      "payable": false,
      "stateMutability": "nonpayable",
      "type": "constructor"
    },
    {
      "constant": false,
      "inputs": [
        {
          "name": "cand",
          "type": "bytes32"
        }
      ],
      "name": "addCandidate",
      "outputs": [],
      "payable": false,
      "stateMutability": "nonpayable",
      "type": "function"
    },
    {
      "constant": true,
      "inputs": [],
      "name": "getCandidateListLen",
      "outputs": [
        {
          "name": "",
          "type": "uint256"
        }
      ],
      "payable": false,
      "stateMutability": "view",
      "type": "function"
    },
    {
      "constant": true,
      "inputs": [
        {
          "name": "candidate",
          "type": "bytes32"
        }
      ],
      "name": "totalVotesFor",
      "outputs": [
        {
          "name": "",
          "type": "uint8"
        }
      ],
      "payable": false,
      "stateMutability": "view",
      "type": "function"
    },
    {
      "constant": false,
      "inputs": [
        {
          "name": "candidate",
          "type": "bytes32"
        }
      ],
      "name": "voteForCandidate",
      "outputs": [],
      "payable": false,
      "stateMutability": "nonpayable",
      "type": "function"
    },
    {
      "constant": true,
      "inputs": [
        {
          "name": "candidate",
          "type": "bytes32"
        }
      ],
      "name": "validCandidate",
      "outputs": [
        {
          "name": "",
          "type": "bool"
        }
      ],
      "payable": false,
      "stateMutability": "view",
      "type": "function"
    }
  ],
  "bytecode": "0x6060604052341561000f57600080fd5b33600260006101000a81548173ffffffffffffffffffffffffffffffffffffffff021916908373ffffffffffffffffffffffffffffffffffffffff160217905550600180548060010182816100649190610409565b916000526020600020900160007f4e69636b2057657374000000000000000000000000000000000000000000000090919091509060001916905550600180548060010182816100b39190610409565b916000526020600020900160007f4e69636b2056696e63656e74000000000000000000000000000000000000000090919091509060001916905550600180548060010182816101029190610409565b916000526020600020900160007f54796c657220526f73656e00000000000000000000000000000000000000000090919091509060001916905550600180548060010182816101519190610409565b916000526020600020900160007f5269636820427564656b0000000000000000000000000000000000000000000090919091509060001916905550600180548060010182816101a09190610409565b916000526020600020900160007f4d696b652053616c696d0000000000000000000000000000000000000000000090919091509060001916905550600180548060010182816101ef9190610409565b916000526020600020900160007f4d6172696f2042616a7269630000000000000000000000000000000000000000909190915090600019169055506001805480600101828161023e9190610409565b916000526020600020900160007f4564776172642059750000000000000000000000000000000000000000000000909190915090600019169055506001805480600101828161028d9190610409565b916000526020600020900160007f4672616e636f6973204a756c69656e20416c636172617a00000000000000000090919091509060001916905550600180548060010182816102dc9190610409565b916000526020600020900160007f4a6f7368756120487564736f6e00000000000000000000000000000000000000909190915090600019169055506001805480600101828161032b9190610409565b916000526020600020900160007f4d617263205374657068656e20536f746f000000000000000000000000000000909190915090600019169055506001805480600101828161037a9190610409565b916000526020600020900160007f5061747269636b204c6f7567687265790000000000000000000000000000000090919091509060001916905550600180548060010182816103c99190610409565b916000526020600020900160007f596f756e67204a6f6f6e67204b696d00000000000000000000000000000000009091909150906000191690555061045a565b8154818355818115116104305781836000526020600020918201910161042f9190610435565b5b505050565b61045791905b8082111561045357600081600090555060010161043b565b5090565b90565b61045d806104696000396000f300606060405260043610610083576000357c0100000000000000000000000000000000000000000000000000000000900463ffffffff1680630a0cf69714610088578063230d6ed8146100b15780632f265cf7146100d8578063392e6678146101195780637021939f14610158578063b13c744b14610199578063cc9ab267146101d8575b600080fd5b341561009357600080fd5b61009b6101ff565b6040518082815260200191505060405180910390f35b34156100bc57600080fd5b6100d660048080356000191690602001909190505061020c565b005b34156100e357600080fd5b6100fd60048080356000191690602001909190505061029a565b604051808260ff1660ff16815260200191505060405180910390f35b341561012457600080fd5b61013e6004808035600019169060200190919050506102df565b604051808215151515815260200191505060405180910390f35b341561016357600080fd5b61017d60048080356000191690602001909190505061033f565b604051808260ff1660ff16815260200191505060405180910390f35b34156101a457600080fd5b6101ba600480803590602001909190505061035f565b60405180826000191660001916815260200191505060405180910390f35b34156101e357600080fd5b6101fd600480803560001916906020019091905050610383565b005b6000600180549050905090565b600260009054906101000a900473ffffffffffffffffffffffffffffffffffffffff1673ffffffffffffffffffffffffffffffffffffffff163373ffffffffffffffffffffffffffffffffffffffff1614151561026857600080fd5b6001805480600101828161027c91906103e0565b91600052602060002090016000839091909150906000191690555050565b60006102a5826102df565b15156102b057600080fd5b600080836000191660001916815260200190815260200160002060009054906101000a900460ff169050919050565b600080600090505b60018054905081101561033457826000191660018281548110151561030857fe5b9060005260206000209001546000191614156103275760019150610339565b80806001019150506102e7565b600091505b50919050565b60006020528060005260406000206000915054906101000a900460ff1681565b60018181548110151561036e57fe5b90600052602060002090016000915090505481565b61038c816102df565b151561039757600080fd5b6001600080836000191660001916815260200190815260200160002060008282829054906101000a900460ff160192506101000a81548160ff021916908360ff16021790555050565b81548183558181151161040757818360005260206000209182019101610406919061040c565b5b505050565b61042e91905b8082111561042a576000816000905550600101610412565b5090565b905600a165627a7a723058206b0457a80649f904b145fd31ef7ebc60269b4d44ef6e82a9de149bb613f523750029",
  "source": "pragma solidity ^0.4.18;\n\ncontract Voting {\n\n  mapping (bytes32 => uint8) public votesReceived;\n  bytes32[] public candidateList;\n  address owner;\n\n  function Voting() {\n    owner = msg.sender;\n\n    candidateList.push('Nick West');\n    candidateList.push('Nick Vincent');\n    candidateList.push('Tyler Rosen');\n    candidateList.push('Rich Budek');\n    candidateList.push('Mike Salim');\n    candidateList.push('Mario Bajric');\n    candidateList.push('Edward Yu');\n    candidateList.push('Francois Julien Alcaraz');\n    candidateList.push('Joshua Hudson');\n    candidateList.push('Marc Stephen Soto');\n    candidateList.push('Patrick Loughrey');\n    candidateList.push('Young Joong Kim');\n  }\n\n  function addCandidate(bytes32 cand){\n    require(msg.sender == owner);\n    candidateList.push(cand);\n  }\n\n  function getCandidateListLen() public view returns (uint256) {\n      return candidateList.length;\n  }\n\n  function totalVotesFor(bytes32 candidate) view public returns (uint8) {\n    require(validCandidate(candidate));\n    return votesReceived[candidate];\n  }\n\n  function voteForCandidate(bytes32 candidate) public {\n    require(validCandidate(candidate));\n    votesReceived[candidate] += 1;\n  }\n\n  function validCandidate(bytes32 candidate) view public returns (bool) {\n    for(uint i = 0; i < candidateList.length; i++) {\n      if (candidateList[i] == candidate) {\n        return true;\n      }\n    }\n    return false;\n   }\n}\n",
  "sourcePath": "/Users/yj/Developer/StudyTheBlockChain/code/voting-app-no-solution/06/contracts/Voting.sol",
  "compiler": {
    "name": "solc",
    "version": "0.4.21+commit.dfe3193c.Emscripten.clang"
  },
  "schemaVersion": "2.0.0",
  "updatedAt": "2018-05-12T21:06:36.049Z"
}