{
  "contractName": "Donate",
  "abi": [
    {
      "constant": true,
      "inputs": [],
      "name": "owner",
      "outputs": [
        {
          "name": "",
          "type": "address"
        }
      ],
      "payable": false,
      "stateMutability": "view",
      "type": "function"
    },
    {
      "constant": false,
      "inputs": [
        {
          "name": "newOwner",
          "type": "address"
        }
      ],
      "name": "transferOwnership",
      "outputs": [],
      "payable": false,
      "stateMutability": "nonpayable",
      "type": "function"
    },
    {
      "anonymous": false,
      "inputs": [
        {
          "indexed": true,
          "name": "previousOwner",
          "type": "address"
        },
        {
          "indexed": true,
          "name": "newOwner",
          "type": "address"
        }
      ],
      "name": "OwnershipTransferred",
      "type": "event"
    },
    {
      "constant": false,
      "inputs": [
        {
          "name": "amount",
          "type": "uint256"
        }
      ],
      "name": "deposit",
      "outputs": [],
      "payable": true,
      "stateMutability": "payable",
      "type": "function"
    },
    {
      "constant": true,
      "inputs": [],
      "name": "getBalance",
      "outputs": [
        {
          "name": "",
          "type": "uint256"
        }
      ],
      "payable": false,
      "stateMutability": "view",
      "type": "function"
    },
    {
      "constant": false,
      "inputs": [],
      "name": "withdraw",
      "outputs": [],
      "payable": false,
      "stateMutability": "nonpayable",
      "type": "function"
    }
  ],
  "bytecode": "0x6060604052336000806101000a81548173ffffffffffffffffffffffffffffffffffffffff021916908373ffffffffffffffffffffffffffffffffffffffff1602179055506103e0806100536000396000f30060606040526004361061006d576000357c0100000000000000000000000000000000000000000000000000000000900463ffffffff16806312065fe0146100725780633ccfd60b1461009b5780638da5cb5b146100b0578063b6b55f2514610105578063f2fde38b1461011d575b600080fd5b341561007d57600080fd5b610085610156565b6040518082815260200191505060405180910390f35b34156100a657600080fd5b6100ae610175565b005b34156100bb57600080fd5b6100c3610229565b604051808273ffffffffffffffffffffffffffffffffffffffff1673ffffffffffffffffffffffffffffffffffffffff16815260200191505060405180910390f35b61011b600480803590602001909190505061024e565b005b341561012857600080fd5b610154600480803573ffffffffffffffffffffffffffffffffffffffff1690602001909190505061025f565b005b60003073ffffffffffffffffffffffffffffffffffffffff1631905090565b6000809054906101000a900473ffffffffffffffffffffffffffffffffffffffff1673ffffffffffffffffffffffffffffffffffffffff163373ffffffffffffffffffffffffffffffffffffffff161415156101d057600080fd5b3373ffffffffffffffffffffffffffffffffffffffff166108fc3073ffffffffffffffffffffffffffffffffffffffff16319081150290604051600060405180830381858888f19350505050151561022757600080fd5b565b6000809054906101000a900473ffffffffffffffffffffffffffffffffffffffff1681565b803414151561025c57600080fd5b50565b6000809054906101000a900473ffffffffffffffffffffffffffffffffffffffff1673ffffffffffffffffffffffffffffffffffffffff163373ffffffffffffffffffffffffffffffffffffffff161415156102ba57600080fd5b600073ffffffffffffffffffffffffffffffffffffffff168173ffffffffffffffffffffffffffffffffffffffff16141515156102f657600080fd5b8073ffffffffffffffffffffffffffffffffffffffff166000809054906101000a900473ffffffffffffffffffffffffffffffffffffffff1673ffffffffffffffffffffffffffffffffffffffff167f8be0079c531659141344cd1fd0a4f28419497f9722a3daafe3b4186f6b6457e060405160405180910390a3806000806101000a81548173ffffffffffffffffffffffffffffffffffffffff021916908373ffffffffffffffffffffffffffffffffffffffff160217905550505600a165627a7a72305820d04304c4ab09c4f0e9828a3e4d304f8fd42f0cf2a925eee767712e0d38f0fe390029",
  "source": "import 'openzeppelin-solidity/contracts/ownership/Ownable.sol';\n\npragma solidity ^0.4.18;\n\ncontract Donate is Ownable {\n    //The payable modifier represents the ability of this deposit() function to accept the ether that the message's sender attached to a transaction message.\n    //The function requires no explicit action to accept the attached ether—attached ether is implicitly transferred to the smart contract.\n    function deposit(uint256 amount) payable public {\n        //msg.value represents the ether that the message's sender attached to a transaction message.\n        require(msg.value == amount);\n    }\n\n    function getBalance() public view returns (uint256) {\n        //this return's the contract's\n        // doing address.balance would return any address's balance\n        return address(this).balance;\n    }\n\n    //One important property of smart contracts is that there is absolutely no way to withdraw ether from a contract other than through execution of some function that the contract exposes. There are no \"backdoors\" that can allow the contract author or deployer to withdraw ether without going through the contract's exposed functions. This is one fundamental reason why a well-written contract can be trusted to handle ether on behalf of users—the users can see the code and, therefore, the means by which owned ether will be used by the contract.\n    function withdraw() external onlyOwner{\n        //always use transfer, don't use send when transferring ether out of a smart contract; because transfer will abort, send won't\n        msg.sender.transfer(address(this).balance);\n    }\n}\n",
  "sourcePath": "/Users/yj/Developer/StudyTheBlockChain/code/tutorial-token/contracts/Donate.sol",
  "compiler": {
    "name": "solc",
    "version": "0.4.21+commit.dfe3193c.Emscripten.clang"
  },
  "schemaVersion": "2.0.0",
  "updatedAt": "2018-05-14T01:50:53.660Z"
}